{
  "_format": "hh-sol-artifact-1",
  "contractName": "Badger",
  "sourceName": "contracts/Badger.sol",
  "abi": [
    {
      "inputs": [],
      "stateMutability": "nonpayable",
      "type": "constructor"
    },
    {
      "anonymous": false,
      "inputs": [
        {
          "indexed": true,
          "internalType": "address",
          "name": "sender",
          "type": "address"
        },
        {
          "indexed": false,
          "internalType": "uint256",
          "name": "badgerId",
          "type": "uint256"
        }
      ],
      "name": "BadgerBurn",
      "type": "event"
    },
    {
      "anonymous": false,
      "inputs": [
        {
          "indexed": true,
          "internalType": "address",
          "name": "to",
          "type": "address"
        },
        {
          "indexed": false,
          "internalType": "uint256",
          "name": "badgerId",
          "type": "uint256"
        }
      ],
      "name": "BadgerMint",
      "type": "event"
    },
    {
      "inputs": [
        {
          "internalType": "uint256",
          "name": "",
          "type": "uint256"
        }
      ],
      "name": "badgers",
      "outputs": [
        {
          "internalType": "uint8",
          "name": "level",
          "type": "uint8"
        },
        {
          "internalType": "uint8",
          "name": "xp",
          "type": "uint8"
        },
        {
          "internalType": "uint8",
          "name": "wins",
          "type": "uint8"
        },
        {
          "internalType": "uint8",
          "name": "losses",
          "type": "uint8"
        },
        {
          "internalType": "uint8",
          "name": "dailyStreak",
          "type": "uint8"
        },
        {
          "internalType": "string",
          "name": "name",
          "type": "string"
        },
        {
          "internalType": "uint256",
          "name": "readyForReward",
          "type": "uint256"
        },
        {
          "internalType": "uint256",
          "name": "readyForAttack",
          "type": "uint256"
        },
        {
          "internalType": "uint256",
          "name": "readyForCoinFlip",
          "type": "uint256"
        },
        {
          "internalType": "uint256",
          "name": "readyForBuckyReward",
          "type": "uint256"
        }
      ],
      "stateMutability": "view",
      "type": "function"
    },
    {
      "inputs": [
        {
          "internalType": "address",
          "name": "",
          "type": "address"
        }
      ],
      "name": "balanceOf",
      "outputs": [
        {
          "internalType": "uint256",
          "name": "",
          "type": "uint256"
        }
      ],
      "stateMutability": "view",
      "type": "function"
    },
    {
      "inputs": [
        {
          "internalType": "string",
          "name": "name",
          "type": "string"
        }
      ],
      "name": "createBadger",
      "outputs": [],
      "stateMutability": "nonpayable",
      "type": "function"
    },
    {
      "inputs": [
        {
          "internalType": "uint256",
          "name": "_badgerId",
          "type": "uint256"
        }
      ],
      "name": "getBadger",
      "outputs": [
        {
          "components": [
            {
              "internalType": "uint8",
              "name": "level",
              "type": "uint8"
            },
            {
              "internalType": "uint8",
              "name": "xp",
              "type": "uint8"
            },
            {
              "internalType": "uint8",
              "name": "wins",
              "type": "uint8"
            },
            {
              "internalType": "uint8",
              "name": "losses",
              "type": "uint8"
            },
            {
              "internalType": "uint8",
              "name": "dailyStreak",
              "type": "uint8"
            },
            {
              "internalType": "string",
              "name": "name",
              "type": "string"
            },
            {
              "internalType": "uint256",
              "name": "readyForReward",
              "type": "uint256"
            },
            {
              "internalType": "uint256",
              "name": "readyForAttack",
              "type": "uint256"
            },
            {
              "internalType": "uint256",
              "name": "readyForCoinFlip",
              "type": "uint256"
            },
            {
              "internalType": "uint256",
              "name": "readyForBuckyReward",
              "type": "uint256"
            }
          ],
          "internalType": "struct Badger.BadgerToken",
          "name": "",
          "type": "tuple"
        }
      ],
      "stateMutability": "view",
      "type": "function"
    },
    {
      "inputs": [
        {
          "internalType": "uint256",
          "name": "",
          "type": "uint256"
        }
      ],
      "name": "ownerOfId",
      "outputs": [
        {
          "internalType": "address",
          "name": "",
          "type": "address"
        }
      ],
      "stateMutability": "view",
      "type": "function"
    }
  ],
  "bytecode": "0x608060405260038060006101000a81548160ff021916908360ff1602179055506014600360016101000a81548160ff021916908360ff1602179055506002600360026101000a81548160ff021916908360ff16021790555060146003806101000a81548160ff021916908360ff1602179055506201518060045561a8c0600555610e1060065561384060075534801561009757600080fd5b506000600881905550610f2a806100af6000396000f3fe608060405234801561001057600080fd5b50600436106100575760003560e01c806370a082311461005c5780637e3eb4f51461008c578063993bcc95146100a8578063c322ecfc146100d8578063d1a5eab914610108575b600080fd5b61007660048036038101906100719190610891565b610141565b60405161008391906108d7565b60405180910390f35b6100a660048036038101906100a19190610a38565b610159565b005b6100c260048036038101906100bd9190610aad565b610451565b6040516100cf9190610c67565b60405180910390f35b6100f260048036038101906100ed9190610aad565b6105ca565b6040516100ff9190610c98565b60405180910390f35b610122600480360381019061011d9190610aad565b6105fd565b6040516101389a99989796959493929190610d0c565b60405180910390f35b60006020528060005260406000206000915090505481565b60008060003373ffffffffffffffffffffffffffffffffffffffff1673ffffffffffffffffffffffffffffffffffffffff16815260200190815260200160002054146101da576040517f08c379a00000000000000000000000000000000000000000000000000000000081526004016101d190610dfb565b60405180910390fd5b600860008154809291906101ed90610e4a565b91905055506000429050604051806101400160405280600160ff168152602001600060ff168152602001600060ff168152602001600060ff168152602001600060ff1681526020018381526020018281526020018281526020018281526020018281525060026000600854815260200190815260200160002060008201518160000160006101000a81548160ff021916908360ff16021790555060208201518160000160016101000a81548160ff021916908360ff16021790555060408201518160000160026101000a81548160ff021916908360ff16021790555060608201518160000160036101000a81548160ff021916908360ff16021790555060808201518160000160046101000a81548160ff021916908360ff16021790555060a082015181600101908051906020019061032792919061071a565b5060c0820151816002015560e08201518160030155610100820151816004015561012082015181600501559050506000803373ffffffffffffffffffffffffffffffffffffffff1673ffffffffffffffffffffffffffffffffffffffff16815260200190815260200160002060008154809291906103a490610e4a565b91905055503360016000600854815260200190815260200160002060006101000a81548173ffffffffffffffffffffffffffffffffffffffff021916908373ffffffffffffffffffffffffffffffffffffffff1602179055503373ffffffffffffffffffffffffffffffffffffffff167ff5baed3b35129590e266a96b7c1916f5e2749a85c67744a2fb7234889e44d7b760085460405161044591906108d7565b60405180910390a25050565b6104596107a0565b60026000838152602001908152602001600020604051806101400160405290816000820160009054906101000a900460ff1660ff1660ff1681526020016000820160019054906101000a900460ff1660ff1660ff1681526020016000820160029054906101000a900460ff1660ff1660ff1681526020016000820160039054906101000a900460ff1660ff1660ff1681526020016000820160049054906101000a900460ff1660ff1660ff16815260200160018201805461051990610ec2565b80601f016020809104026020016040519081016040528092919081815260200182805461054590610ec2565b80156105925780601f1061056757610100808354040283529160200191610592565b820191906000526020600020905b81548152906001019060200180831161057557829003601f168201915b505050505081526020016002820154815260200160038201548152602001600482015481526020016005820154815250509050919050565b60016020528060005260406000206000915054906101000a900473ffffffffffffffffffffffffffffffffffffffff1681565b60026020528060005260406000206000915090508060000160009054906101000a900460ff16908060000160019054906101000a900460ff16908060000160029054906101000a900460ff16908060000160039054906101000a900460ff16908060000160049054906101000a900460ff169080600101805461067f90610ec2565b80601f01602080910402602001604051908101604052809291908181526020018280546106ab90610ec2565b80156106f85780601f106106cd576101008083540402835291602001916106f8565b820191906000526020600020905b8154815290600101906020018083116106db57829003601f168201915b505050505090806002015490806003015490806004015490806005015490508a565b82805461072690610ec2565b90600052602060002090601f016020900481019282610748576000855561078f565b82601f1061076157805160ff191683800117855561078f565b8280016001018555821561078f579182015b8281111561078e578251825591602001919060010190610773565b5b50905061079c9190610802565b5090565b604051806101400160405280600060ff168152602001600060ff168152602001600060ff168152602001600060ff168152602001600060ff16815260200160608152602001600081526020016000815260200160008152602001600081525090565b5b8082111561081b576000816000905550600101610803565b5090565b6000604051905090565b600080fd5b600080fd5b600073ffffffffffffffffffffffffffffffffffffffff82169050919050565b600061085e82610833565b9050919050565b61086e81610853565b811461087957600080fd5b50565b60008135905061088b81610865565b92915050565b6000602082840312156108a7576108a6610829565b5b60006108b58482850161087c565b91505092915050565b6000819050919050565b6108d1816108be565b82525050565b60006020820190506108ec60008301846108c8565b92915050565b600080fd5b600080fd5b6000601f19601f8301169050919050565b7f4e487b7100000000000000000000000000000000000000000000000000000000600052604160045260246000fd5b610945826108fc565b810181811067ffffffffffffffff821117156109645761096361090d565b5b80604052505050565b600061097761081f565b9050610983828261093c565b919050565b600067ffffffffffffffff8211156109a3576109a261090d565b5b6109ac826108fc565b9050602081019050919050565b82818337600083830152505050565b60006109db6109d684610988565b61096d565b9050828152602081018484840111156109f7576109f66108f7565b5b610a028482856109b9565b509392505050565b600082601f830112610a1f57610a1e6108f2565b5b8135610a2f8482602086016109c8565b91505092915050565b600060208284031215610a4e57610a4d610829565b5b600082013567ffffffffffffffff811115610a6c57610a6b61082e565b5b610a7884828501610a0a565b91505092915050565b610a8a816108be565b8114610a9557600080fd5b50565b600081359050610aa781610a81565b92915050565b600060208284031215610ac357610ac2610829565b5b6000610ad184828501610a98565b91505092915050565b600060ff82169050919050565b610af081610ada565b82525050565b600081519050919050565b600082825260208201905092915050565b60005b83811015610b30578082015181840152602081019050610b15565b83811115610b3f576000848401525b50505050565b6000610b5082610af6565b610b5a8185610b01565b9350610b6a818560208601610b12565b610b73816108fc565b840191505092915050565b610b87816108be565b82525050565b600061014083016000830151610ba66000860182610ae7565b506020830151610bb96020860182610ae7565b506040830151610bcc6040860182610ae7565b506060830151610bdf6060860182610ae7565b506080830151610bf26080860182610ae7565b5060a083015184820360a0860152610c0a8282610b45565b91505060c0830151610c1f60c0860182610b7e565b5060e0830151610c3260e0860182610b7e565b50610100830151610c47610100860182610b7e565b50610120830151610c5c610120860182610b7e565b508091505092915050565b60006020820190508181036000830152610c818184610b8d565b905092915050565b610c9281610853565b82525050565b6000602082019050610cad6000830184610c89565b92915050565b610cbc81610ada565b82525050565b600082825260208201905092915050565b6000610cde82610af6565b610ce88185610cc2565b9350610cf8818560208601610b12565b610d01816108fc565b840191505092915050565b600061014082019050610d22600083018d610cb3565b610d2f602083018c610cb3565b610d3c604083018b610cb3565b610d49606083018a610cb3565b610d566080830189610cb3565b81810360a0830152610d688188610cd3565b9050610d7760c08301876108c8565b610d8460e08301866108c8565b610d926101008301856108c8565b610da06101208301846108c8565b9b9a5050505050505050505050565b7f315f4241444745525f4f4e4c5900000000000000000000000000000000000000600082015250565b6000610de5600d83610cc2565b9150610df082610daf565b602082019050919050565b60006020820190508181036000830152610e1481610dd8565b9050919050565b7f4e487b7100000000000000000000000000000000000000000000000000000000600052601160045260246000fd5b6000610e55826108be565b91507fffffffffffffffffffffffffffffffffffffffffffffffffffffffffffffffff821415610e8857610e87610e1b565b5b600182019050919050565b7f4e487b7100000000000000000000000000000000000000000000000000000000600052602260045260246000fd5b60006002820490506001821680610eda57607f821691505b60208210811415610eee57610eed610e93565b5b5091905056fea26469706673582212202d90b2fcb6ca9e812bf69ac0454171fff694c816f8f3390293b6b7c35a82fb0e64736f6c63430008090033",
  "linkReferences": {},
  "deployedLinkReferences": {}
}