{
  "_format": "hh-sol-artifact-1",
  "contractName": "BadgerWorld",
  "sourceName": "contracts/BadgerWorld.sol",
  "abi": [
    {
      "anonymous": false,
      "inputs": [
        {
          "indexed": true,
          "internalType": "address",
          "name": "sender",
          "type": "address"
        },
        {
          "indexed": false,
          "internalType": "uint256",
          "name": "badgerId",
          "type": "uint256"
        }
      ],
      "name": "BadgerBurn",
      "type": "event"
    },
    {
      "anonymous": false,
      "inputs": [
        {
          "indexed": true,
          "internalType": "address",
          "name": "to",
          "type": "address"
        },
        {
          "indexed": false,
          "internalType": "uint256",
          "name": "badgerId",
          "type": "uint256"
        }
      ],
      "name": "BadgerMint",
      "type": "event"
    },
    {
      "inputs": [
        {
          "internalType": "uint256",
          "name": "_attackId",
          "type": "uint256"
        },
        {
          "internalType": "uint256",
          "name": "_defenseId",
          "type": "uint256"
        }
      ],
      "name": "attackBadger",
      "outputs": [],
      "stateMutability": "nonpayable",
      "type": "function"
    },
    {
      "inputs": [
        {
          "internalType": "uint256",
          "name": "",
          "type": "uint256"
        }
      ],
      "name": "badgers",
      "outputs": [
        {
          "internalType": "uint8",
          "name": "level",
          "type": "uint8"
        },
        {
          "internalType": "uint8",
          "name": "xp",
          "type": "uint8"
        },
        {
          "internalType": "uint8",
          "name": "wins",
          "type": "uint8"
        },
        {
          "internalType": "uint8",
          "name": "losses",
          "type": "uint8"
        },
        {
          "internalType": "uint8",
          "name": "dailyStreak",
          "type": "uint8"
        },
        {
          "internalType": "string",
          "name": "name",
          "type": "string"
        },
        {
          "internalType": "uint256",
          "name": "readyForReward",
          "type": "uint256"
        },
        {
          "internalType": "uint256",
          "name": "readyForAttack",
          "type": "uint256"
        },
        {
          "internalType": "uint256",
          "name": "readyForCoinFlip",
          "type": "uint256"
        },
        {
          "internalType": "uint256",
          "name": "readyForBuckyReward",
          "type": "uint256"
        }
      ],
      "stateMutability": "view",
      "type": "function"
    },
    {
      "inputs": [
        {
          "internalType": "address",
          "name": "",
          "type": "address"
        }
      ],
      "name": "balanceOf",
      "outputs": [
        {
          "internalType": "uint256",
          "name": "",
          "type": "uint256"
        }
      ],
      "stateMutability": "view",
      "type": "function"
    },
    {
      "inputs": [
        {
          "internalType": "uint256",
          "name": "_badgerId",
          "type": "uint256"
        }
      ],
      "name": "claimDailyXp",
      "outputs": [],
      "stateMutability": "nonpayable",
      "type": "function"
    },
    {
      "inputs": [
        {
          "internalType": "uint256",
          "name": "_badgerId",
          "type": "uint256"
        },
        {
          "internalType": "uint8",
          "name": "_xpBet",
          "type": "uint8"
        },
        {
          "internalType": "uint256",
          "name": "_guess",
          "type": "uint256"
        }
      ],
      "name": "coinFlip",
      "outputs": [],
      "stateMutability": "nonpayable",
      "type": "function"
    },
    {
      "inputs": [
        {
          "internalType": "string",
          "name": "name",
          "type": "string"
        }
      ],
      "name": "createBadger",
      "outputs": [],
      "stateMutability": "nonpayable",
      "type": "function"
    },
    {
      "inputs": [
        {
          "internalType": "uint256",
          "name": "_badgerId",
          "type": "uint256"
        }
      ],
      "name": "getBadger",
      "outputs": [
        {
          "components": [
            {
              "internalType": "uint8",
              "name": "level",
              "type": "uint8"
            },
            {
              "internalType": "uint8",
              "name": "xp",
              "type": "uint8"
            },
            {
              "internalType": "uint8",
              "name": "wins",
              "type": "uint8"
            },
            {
              "internalType": "uint8",
              "name": "losses",
              "type": "uint8"
            },
            {
              "internalType": "uint8",
              "name": "dailyStreak",
              "type": "uint8"
            },
            {
              "internalType": "string",
              "name": "name",
              "type": "string"
            },
            {
              "internalType": "uint256",
              "name": "readyForReward",
              "type": "uint256"
            },
            {
              "internalType": "uint256",
              "name": "readyForAttack",
              "type": "uint256"
            },
            {
              "internalType": "uint256",
              "name": "readyForCoinFlip",
              "type": "uint256"
            },
            {
              "internalType": "uint256",
              "name": "readyForBuckyReward",
              "type": "uint256"
            }
          ],
          "internalType": "struct Badger.BadgerToken",
          "name": "",
          "type": "tuple"
        }
      ],
      "stateMutability": "view",
      "type": "function"
    },
    {
      "inputs": [
        {
          "internalType": "uint256",
          "name": "",
          "type": "uint256"
        }
      ],
      "name": "ownerOfId",
      "outputs": [
        {
          "internalType": "address",
          "name": "",
          "type": "address"
        }
      ],
      "stateMutability": "view",
      "type": "function"
    },
    {
      "inputs": [
        {
          "internalType": "uint256",
          "name": "_badgerId",
          "type": "uint256"
        }
      ],
      "name": "talkToBucky",
      "outputs": [],
      "stateMutability": "nonpayable",
      "type": "function"
    }
  ],
  "bytecode": "0x608060405260038060006101000a81548160ff021916908360ff1602179055506014600360016101000a81548160ff021916908360ff1602179055506002600360026101000a81548160ff021916908360ff16021790555060146003806101000a81548160ff021916908360ff1602179055506201518060045561a8c0600555610e1060065561384060075560006009556032600a60006101000a81548160ff021916908360ff1602179055503480156100b857600080fd5b5060006008819055506126ee806100d06000396000f3fe608060405234801561001057600080fd5b50600436106100935760003560e01c80637e3eb4f5116100665780637e3eb4f51461011c578063993bcc9514610138578063c322ecfc14610168578063d029748114610198578063d1a5eab9146101b457610093565b8063068230f51461009857806316bc96e5146100b45780633fe889a6146100d057806370a08231146100ec575b600080fd5b6100b260048036038101906100ad9190611849565b6101ed565b005b6100ce60048036038101906100c991906118af565b6104b6565b005b6100ea60048036038101906100e59190611849565b610652565b005b61010660048036038101906101019190611960565b6109af565b604051610113919061199c565b60405180910390f35b61013660048036038101906101319190611afd565b6109c7565b005b610152600480360381019061014d9190611849565b610cbf565b60405161015f9190611cc6565b60405180910390f35b610182600480360381019061017d9190611849565b610e38565b60405161018f9190611cf7565b60405180910390f35b6101b260048036038101906101ad9190611d12565b610e6b565b005b6101ce60048036038101906101c99190611849565b6110e8565b6040516101e49a99989796959493929190611dab565b60405180910390f35b806001600082815260200190815260200160002060009054906101000a900473ffffffffffffffffffffffffffffffffffffffff1673ffffffffffffffffffffffffffffffffffffffff163373ffffffffffffffffffffffffffffffffffffffff161461025957600080fd5b600060026000848152602001908152602001600020604051806101400160405290816000820160009054906101000a900460ff1660ff1660ff1681526020016000820160019054906101000a900460ff1660ff1660ff1681526020016000820160029054906101000a900460ff1660ff1660ff1681526020016000820160039054906101000a900460ff1660ff1660ff1681526020016000820160049054906101000a900460ff1660ff1660ff16815260200160018201805461031b90611e7d565b80601f016020809104026020016040519081016040528092919081815260200182805461034790611e7d565b80156103945780601f1061036957610100808354040283529160200191610394565b820191906000526020600020905b81548152906001019060200180831161037757829003601f168201915b505050505081526020016002820154815260200160038201548152602001600482015481526020016005820154815250509050428161012001511161040e576040517f08c379a000000000000000000000000000000000000000000000000000000000815260040161040590611f21565b60405180910390fd5b600061041a6064611205565b9050605a8110156104675760006104316005611205565b90506000601482856000015160ff1661044a9190611f70565b6104549190611fca565b90506104608682611261565b5050610488565b60006014836000015161047a9190612020565b90506104868582611340565b505b600754426104969190611fca565b600260008681526020019081526020016000206005018190555050505050565b826001600082815260200190815260200160002060009054906101000a900473ffffffffffffffffffffffffffffffffffffffff1673ffffffffffffffffffffffffffffffffffffffff163373ffffffffffffffffffffffffffffffffffffffff161461052257600080fd5b426002600086815260200190815260200160002060040154101561057b576040517f08c379a0000000000000000000000000000000000000000000000000000000008152600401610572906120c9565b60405180910390fd5b6002600085815260200190815260200160002060000160019054906101000a900460ff1660ff168360ff1611156105e7576040517f08c379a00000000000000000000000000000000000000000000000000000000081526004016105de9061215b565b60405180910390fd5b60006105f36002611205565b90508281141561060c576106078585611261565b610623565b6106228560028661061d91906121aa565b611340565b5b600654426106319190611fca565b60026000878152602001908152602001600020600401819055505050505050565b806001600082815260200190815260200160002060009054906101000a900473ffffffffffffffffffffffffffffffffffffffff1673ffffffffffffffffffffffffffffffffffffffff163373ffffffffffffffffffffffffffffffffffffffff16146106be57600080fd5b600060026000848152602001908152602001600020604051806101400160405290816000820160009054906101000a900460ff1660ff1660ff1681526020016000820160019054906101000a900460ff1660ff1660ff1681526020016000820160029054906101000a900460ff1660ff1660ff1681526020016000820160039054906101000a900460ff1660ff1660ff1681526020016000820160049054906101000a900460ff1660ff1660ff16815260200160018201805461078090611e7d565b80601f01602080910402602001604051908101604052809291908181526020018280546107ac90611e7d565b80156107f95780601f106107ce576101008083540402835291602001916107f9565b820191906000526020600020905b8154815290600101906020018083116107dc57829003601f168201915b5050505050815260200160028201548152602001600382015481526020016004820154815260200160058201548152505090506000429050808260c001511015610878576040517f08c379a000000000000000000000000000000000000000000000000000000000815260040161086f9061224d565b60405180910390fd5b62015180426108879190611fca565b8260c001511161093d576000600360019054906101000a900460ff1660ff16836080015160ff1611156108cb57600360019054906101000a900460ff1690506108d3565b826080015190505b60006108de82611402565b90506108ea8682611261565b60026000878152602001908152602001600020600001600481819054906101000a900460ff168092919061091d9061226d565b91906101000a81548160ff021916908360ff160217905550505050610981565b60016002600086815260200190815260200160002060000160046101000a81548160ff021916908360ff1602179055506109808461097b6001611402565b611261565b5b6004548161098f9190611fca565b600260008681526020019081526020016000206002018190555050505050565b60006020528060005260406000206000915090505481565b60008060003373ffffffffffffffffffffffffffffffffffffffff1673ffffffffffffffffffffffffffffffffffffffff1681526020019081526020016000205414610a48576040517f08c379a0000000000000000000000000000000000000000000000000000000008152600401610a3f906122e3565b60405180910390fd5b60086000815480929190610a5b90612303565b91905055506000429050604051806101400160405280600160ff168152602001600060ff168152602001600060ff168152602001600060ff168152602001600060ff1681526020018381526020018281526020018281526020018281526020018281525060026000600854815260200190815260200160002060008201518160000160006101000a81548160ff021916908360ff16021790555060208201518160000160016101000a81548160ff021916908360ff16021790555060408201518160000160026101000a81548160ff021916908360ff16021790555060608201518160000160036101000a81548160ff021916908360ff16021790555060808201518160000160046101000a81548160ff021916908360ff16021790555060a0820151816001019080519060200190610b959291906116fa565b5060c0820151816002015560e08201518160030155610100820151816004015561012082015181600501559050506000803373ffffffffffffffffffffffffffffffffffffffff1673ffffffffffffffffffffffffffffffffffffffff1681526020019081526020016000206000815480929190610c1290612303565b91905055503360016000600854815260200190815260200160002060006101000a81548173ffffffffffffffffffffffffffffffffffffffff021916908373ffffffffffffffffffffffffffffffffffffffff1602179055503373ffffffffffffffffffffffffffffffffffffffff167ff5baed3b35129590e266a96b7c1916f5e2749a85c67744a2fb7234889e44d7b7600854604051610cb3919061199c565b60405180910390a25050565b610cc7611780565b60026000838152602001908152602001600020604051806101400160405290816000820160009054906101000a900460ff1660ff1660ff1681526020016000820160019054906101000a900460ff1660ff1660ff1681526020016000820160029054906101000a900460ff1660ff1660ff1681526020016000820160039054906101000a900460ff1660ff1660ff1681526020016000820160049054906101000a900460ff1660ff1660ff168152602001600182018054610d8790611e7d565b80601f0160208091040260200160405190810160405280929190818152602001828054610db390611e7d565b8015610e005780601f10610dd557610100808354040283529160200191610e00565b820191906000526020600020905b815481529060010190602001808311610de357829003601f168201915b505050505081526020016002820154815260200160038201548152602001600482015481526020016005820154815250509050919050565b60016020528060005260406000206000915054906101000a900473ffffffffffffffffffffffffffffffffffffffff1681565b816001600082815260200190815260200160002060009054906101000a900473ffffffffffffffffffffffffffffffffffffffff1673ffffffffffffffffffffffffffffffffffffffff163373ffffffffffffffffffffffffffffffffffffffff1614610ed757600080fd5b600060026000858152602001908152602001600020905060006002600085815260200190815260200160002090504282600301541015610f4c576040517f08c379a0000000000000000000000000000000000000000000000000000000008152600401610f4390612398565b60405180910390fd5b60008260000160009054906101000a900460ff16600a60009054906101000a900460ff16610f7a9190612020565b90506000610f886064611205565b90508160ff168110156110315783600001600281819054906101000a900460ff1680929190610fb69061226d565b91906101000a81548160ff021916908360ff1602179055505082600001600381819054906101000a900460ff1680929190610ff09061226d565b91906101000a81548160ff021916908360ff1602179055505061102c876110278660000160009054906101000a900460ff16611402565b611261565b6110c9565b83600001600381819054906101000a900460ff16809291906110529061226d565b91906101000a81548160ff021916908360ff1602179055505082600001600281819054906101000a900460ff168092919061108c9061226d565b91906101000a81548160ff021916908360ff160217905550506110c8866110c38660000160009054906101000a900460ff16611402565b611261565b5b600554426110d79190611fca565b846003018190555050505050505050565b60026020528060005260406000206000915090508060000160009054906101000a900460ff16908060000160019054906101000a900460ff16908060000160029054906101000a900460ff16908060000160039054906101000a900460ff16908060000160049054906101000a900460ff169080600101805461116a90611e7d565b80601f016020809104026020016040519081016040528092919081815260200182805461119690611e7d565b80156111e35780601f106111b8576101008083540402835291602001916111e3565b820191906000526020600020905b8154815290600101906020018083116111c657829003601f168201915b505050505090806002015490806003015490806004015490806005015490508a565b60006009600081548092919061121a90612303565b919050555081423360095460405160200161123793929190612421565b6040516020818303038152906040528051906020012060001c61125a919061245e565b9050919050565b60006002600084815260200190815260200160002060000160009054906101000a900460ff16905060006002600085815260200190815260200160002060000160019054906101000a900460ff1690505b6112bb82611432565b60ff1683826112ca9190612020565b60ff161061130b5760006112dd83611432565b84836112e99190612020565b6112f3919061248f565b90506112fe85611462565b80935060009150506112b2565b826002600086815260200190815260200160002060000160016101000a81548160ff021916908360ff16021790555050505050565b8060ff166002600084815260200190815260200160002060000160019054906101000a900460ff1660ff16116113a15760006002600084815260200190815260200160002060000160016101000a81548160ff021916908360ff1602179055505b806002600084815260200190815260200160002060000160019054906101000a900460ff166113d0919061248f565b6002600084815260200190815260200160002060000160016101000a81548160ff021916908360ff1602179055505050565b60006032600360029054906101000a900460ff168361142191906125f6565b61142b9190612020565b9050919050565b60006064600360009054906101000a900460ff168361145191906125f6565b61145b9190612020565b9050919050565b60026000828152602001908152602001600020600001600081819054906101000a900460ff16809291906114959061226d565b91906101000a81548160ff021916908360ff1602179055505060038054906101000a900460ff1660ff166002600083815260200190815260200160002060000160009054906101000a900460ff1660ff1611156114f6576114f5816114f9565b5b50565b600073ffffffffffffffffffffffffffffffffffffffff166001600083815260200190815260200160002060009054906101000a900473ffffffffffffffffffffffffffffffffffffffff1673ffffffffffffffffffffffffffffffffffffffff16141561159c576040517f08c379a00000000000000000000000000000000000000000000000000000000081526004016115939061266e565b60405180910390fd5b6000806001600084815260200190815260200160002060009054906101000a900473ffffffffffffffffffffffffffffffffffffffff1673ffffffffffffffffffffffffffffffffffffffff1673ffffffffffffffffffffffffffffffffffffffff168152602001908152602001600020600081548092919061161e9061268e565b919050555060006001600083815260200190815260200160002060006101000a81548173ffffffffffffffffffffffffffffffffffffffff021916908373ffffffffffffffffffffffffffffffffffffffff1602179055506001600082815260200190815260200160002060009054906101000a900473ffffffffffffffffffffffffffffffffffffffff1673ffffffffffffffffffffffffffffffffffffffff167fd68d3d975c2141fc590492de11a29c8712ffdc4f94cd3370679e178c2919b0be826040516116ef919061199c565b60405180910390a250565b82805461170690611e7d565b90600052602060002090601f016020900481019282611728576000855561176f565b82601f1061174157805160ff191683800117855561176f565b8280016001018555821561176f579182015b8281111561176e578251825591602001919060010190611753565b5b50905061177c91906117e2565b5090565b604051806101400160405280600060ff168152602001600060ff168152602001600060ff168152602001600060ff168152602001600060ff16815260200160608152602001600081526020016000815260200160008152602001600081525090565b5b808211156117fb5760008160009055506001016117e3565b5090565b6000604051905090565b600080fd5b600080fd5b6000819050919050565b61182681611813565b811461183157600080fd5b50565b6000813590506118438161181d565b92915050565b60006020828403121561185f5761185e611809565b5b600061186d84828501611834565b91505092915050565b600060ff82169050919050565b61188c81611876565b811461189757600080fd5b50565b6000813590506118a981611883565b92915050565b6000806000606084860312156118c8576118c7611809565b5b60006118d686828701611834565b93505060206118e78682870161189a565b92505060406118f886828701611834565b9150509250925092565b600073ffffffffffffffffffffffffffffffffffffffff82169050919050565b600061192d82611902565b9050919050565b61193d81611922565b811461194857600080fd5b50565b60008135905061195a81611934565b92915050565b60006020828403121561197657611975611809565b5b60006119848482850161194b565b91505092915050565b61199681611813565b82525050565b60006020820190506119b1600083018461198d565b92915050565b600080fd5b600080fd5b6000601f19601f8301169050919050565b7f4e487b7100000000000000000000000000000000000000000000000000000000600052604160045260246000fd5b611a0a826119c1565b810181811067ffffffffffffffff82111715611a2957611a286119d2565b5b80604052505050565b6000611a3c6117ff565b9050611a488282611a01565b919050565b600067ffffffffffffffff821115611a6857611a676119d2565b5b611a71826119c1565b9050602081019050919050565b82818337600083830152505050565b6000611aa0611a9b84611a4d565b611a32565b905082815260208101848484011115611abc57611abb6119bc565b5b611ac7848285611a7e565b509392505050565b600082601f830112611ae457611ae36119b7565b5b8135611af4848260208601611a8d565b91505092915050565b600060208284031215611b1357611b12611809565b5b600082013567ffffffffffffffff811115611b3157611b3061180e565b5b611b3d84828501611acf565b91505092915050565b611b4f81611876565b82525050565b600081519050919050565b600082825260208201905092915050565b60005b83811015611b8f578082015181840152602081019050611b74565b83811115611b9e576000848401525b50505050565b6000611baf82611b55565b611bb98185611b60565b9350611bc9818560208601611b71565b611bd2816119c1565b840191505092915050565b611be681611813565b82525050565b600061014083016000830151611c056000860182611b46565b506020830151611c186020860182611b46565b506040830151611c2b6040860182611b46565b506060830151611c3e6060860182611b46565b506080830151611c516080860182611b46565b5060a083015184820360a0860152611c698282611ba4565b91505060c0830151611c7e60c0860182611bdd565b5060e0830151611c9160e0860182611bdd565b50610100830151611ca6610100860182611bdd565b50610120830151611cbb610120860182611bdd565b508091505092915050565b60006020820190508181036000830152611ce08184611bec565b905092915050565b611cf181611922565b82525050565b6000602082019050611d0c6000830184611ce8565b92915050565b60008060408385031215611d2957611d28611809565b5b6000611d3785828601611834565b9250506020611d4885828601611834565b9150509250929050565b611d5b81611876565b82525050565b600082825260208201905092915050565b6000611d7d82611b55565b611d878185611d61565b9350611d97818560208601611b71565b611da0816119c1565b840191505092915050565b600061014082019050611dc1600083018d611d52565b611dce602083018c611d52565b611ddb604083018b611d52565b611de8606083018a611d52565b611df56080830189611d52565b81810360a0830152611e078188611d72565b9050611e1660c083018761198d565b611e2360e083018661198d565b611e3161010083018561198d565b611e3f61012083018461198d565b9b9a5050505050505050505050565b7f4e487b7100000000000000000000000000000000000000000000000000000000600052602260045260246000fd5b60006002820490506001821680611e9557607f821691505b60208210811415611ea957611ea8611e4e565b5b50919050565b7f4d7573742077616974203420686f757273206265747765656e2074616c6b696e60008201527f6720746f206275636b792e000000000000000000000000000000000000000000602082015250565b6000611f0b602b83611d61565b9150611f1682611eaf565b604082019050919050565b60006020820190508181036000830152611f3a81611efe565b9050919050565b7f4e487b7100000000000000000000000000000000000000000000000000000000600052601160045260246000fd5b6000611f7b82611813565b9150611f8683611813565b9250817fffffffffffffffffffffffffffffffffffffffffffffffffffffffffffffffff0483118215151615611fbf57611fbe611f41565b5b828202905092915050565b6000611fd582611813565b9150611fe083611813565b9250827fffffffffffffffffffffffffffffffffffffffffffffffffffffffffffffffff0382111561201557612014611f41565b5b828201905092915050565b600061202b82611876565b915061203683611876565b92508260ff0382111561204c5761204b611f41565b5b828201905092915050565b7f4d7573742077616974203120686f7572206265747765656e20636f696e666c6960008201527f70732e0000000000000000000000000000000000000000000000000000000000602082015250565b60006120b3602383611d61565b91506120be82612057565b604082019050919050565b600060208201905081810360008301526120e2816120a6565b9050919050565b7f596f752063616e6e6f7420626574206d6f7265205850207468616e20796f752060008201527f686176652e000000000000000000000000000000000000000000000000000000602082015250565b6000612145602583611d61565b9150612150826120e9565b604082019050919050565b6000602082019050818103600083015261217481612138565b9050919050565b7f4e487b7100000000000000000000000000000000000000000000000000000000600052601260045260246000fd5b60006121b582611876565b91506121c083611876565b9250826121d0576121cf61217b565b5b828204905092915050565b7f596f75206d757374207761697420323420686f7572732073696e63652074686560008201527f206c6173742074696d652e000000000000000000000000000000000000000000602082015250565b6000612237602b83611d61565b9150612242826121db565b604082019050919050565b600060208201905081810360008301526122668161222a565b9050919050565b600061227882611876565b915060ff82141561228c5761228b611f41565b5b600182019050919050565b7f315f4241444745525f4f4e4c5900000000000000000000000000000000000000600082015250565b60006122cd600d83611d61565b91506122d882612297565b602082019050919050565b600060208201905081810360008301526122fc816122c0565b9050919050565b600061230e82611813565b91507fffffffffffffffffffffffffffffffffffffffffffffffffffffffffffffffff82141561234157612340611f41565b5b600182019050919050565b7f43616e2061747461636b206f6e636520657665727920313220686f7572732e00600082015250565b6000612382601f83611d61565b915061238d8261234c565b602082019050919050565b600060208201905081810360008301526123b181612375565b9050919050565b6000819050919050565b6123d36123ce82611813565b6123b8565b82525050565b60008160601b9050919050565b60006123f1826123d9565b9050919050565b6000612403826123e6565b9050919050565b61241b61241682611922565b6123f8565b82525050565b600061242d82866123c2565b60208201915061243d828561240a565b60148201915061244d82846123c2565b602082019150819050949350505050565b600061246982611813565b915061247483611813565b9250826124845761248361217b565b5b828206905092915050565b600061249a82611876565b91506124a583611876565b9250828210156124b8576124b7611f41565b5b828203905092915050565b60008160011c9050919050565b6000808291508390505b600185111561251a578086048111156124f6576124f5611f41565b5b60018516156125055780820291505b8081029050612513856124c3565b94506124da565b94509492505050565b60008261253357600190506125ef565b8161254157600090506125ef565b8160018114612557576002811461256157612590565b60019150506125ef565b60ff84111561257357612572611f41565b5b8360020a91508482111561258a57612589611f41565b5b506125ef565b5060208310610133831016604e8410600b84101617156125c55782820a9050838111156125c0576125bf611f41565b5b6125ef565b6125d284848460016124d0565b925090508184048111156125e9576125e8611f41565b5b81810290505b9392505050565b600061260182611876565b915061260c83611876565b925061261a60ff8484612523565b905092915050565b7f4e6f74206d696e7465642e000000000000000000000000000000000000000000600082015250565b6000612658600b83611d61565b915061266382612622565b602082019050919050565b600060208201905081810360008301526126878161264b565b9050919050565b600061269982611813565b915060008214156126ad576126ac611f41565b5b60018203905091905056fea26469706673582212203228b44e9a424814d88b9eba260104af12558adf7a78e5c9c837fc0c02cccbc664736f6c63430008090033",
  "linkReferences": {},
  "deployedLinkReferences": {}
}